{
  "contractName": "ReservationContract",
  "abi": [
    {
      "inputs": [
        {
          "internalType": "uint256",
          "name": "",
          "type": "uint256"
        }
      ],
      "name": "reservations",
      "outputs": [
        {
          "internalType": "uint256",
          "name": "id",
          "type": "uint256"
        },
        {
          "internalType": "string",
          "name": "name",
          "type": "string"
        },
        {
          "internalType": "string",
          "name": "start_date",
          "type": "string"
        },
        {
          "internalType": "uint256",
          "name": "amount_days",
          "type": "uint256"
        },
        {
          "internalType": "uint256",
          "name": "amount_persons",
          "type": "uint256"
        }
      ],
      "stateMutability": "view",
      "type": "function"
    },
    {
      "inputs": [],
      "name": "reservationsCounter",
      "outputs": [
        {
          "internalType": "uint256",
          "name": "",
          "type": "uint256"
        }
      ],
      "stateMutability": "view",
      "type": "function"
    },
    {
      "inputs": [],
      "name": "reservationsID",
      "outputs": [
        {
          "internalType": "uint256",
          "name": "",
          "type": "uint256"
        }
      ],
      "stateMutability": "view",
      "type": "function"
    },
    {
      "inputs": [
        {
          "internalType": "string",
          "name": "_name",
          "type": "string"
        },
        {
          "internalType": "string",
          "name": "_start_date",
          "type": "string"
        },
        {
          "internalType": "uint256",
          "name": "_amount_days",
          "type": "uint256"
        },
        {
          "internalType": "uint256",
          "name": "_amount_persons",
          "type": "uint256"
        }
      ],
      "name": "createReservation",
      "outputs": [],
      "stateMutability": "nonpayable",
      "type": "function"
    },
    {
      "inputs": [
        {
          "internalType": "uint256",
          "name": "_id",
          "type": "uint256"
        }
      ],
      "name": "deleteReservation",
      "outputs": [],
      "stateMutability": "nonpayable",
      "type": "function"
    },
    {
      "inputs": [
        {
          "internalType": "uint256",
          "name": "_id",
          "type": "uint256"
        },
        {
          "internalType": "uint256",
          "name": "_amount_days",
          "type": "uint256"
        }
      ],
      "name": "modifyDays",
      "outputs": [],
      "stateMutability": "nonpayable",
      "type": "function"
    },
    {
      "inputs": [
        {
          "internalType": "uint256",
          "name": "_id",
          "type": "uint256"
        },
        {
          "internalType": "uint256",
          "name": "_amount_persons",
          "type": "uint256"
        }
      ],
      "name": "modifyAmountPersons",
      "outputs": [],
      "stateMutability": "nonpayable",
      "type": "function"
    }
  ],
  "bytecode": "0x608060405260008055600060015534801561001957600080fd5b50610b0e806100296000396000f3fe608060405234801561001057600080fd5b506004361061007d5760003560e01c8063733cf02b1161005b578063733cf02b146100f05780639dddacf31461010e578063a7e2bfc51461012a578063c12e20e3146101465761007d565b8063067cf832146100825780633f959952146100b657806364ecf425146100d4575b600080fd5b61009c600480360381019061009791906106de565b610162565b6040516100ad9594939291906107f1565b60405180910390f35b6100be6102a8565b6040516100cb91906107d6565b60405180910390f35b6100ee60048036038101906100e9919061070b565b6102ae565b005b6100f8610325565b60405161010591906107d6565b60405180910390f35b6101286004803603810190610123919061063f565b61032b565b005b610144600480360381019061013f919061070b565b6103f8565b005b610160600480360381019061015b91906106de565b61046f565b005b600260205280600052604060002060009150905080600001549080600101805461018b9061093a565b80601f01602080910402602001604051908101604052809291908181526020018280546101b79061093a565b80156102045780601f106101d957610100808354040283529160200191610204565b820191906000526020600020905b8154815290600101906020018083116101e757829003601f168201915b5050505050908060020180546102199061093a565b80601f01602080910402602001604051908101604052809291908181526020018280546102459061093a565b80156102925780601f1061026757610100808354040283529160200191610292565b820191906000526020600020905b81548152906001019060200180831161027557829003601f168201915b5050505050908060030154908060040154905085565b60015481565b81600260008481526020019081526020016000206000015414610306576040517f08c379a00000000000000000000000000000000000000000000000000000000081526004016102fd906107b6565b60405180910390fd5b8060026000848152602001908152602001600020600401819055505050565b60005481565b6040518060a00160405280600154815260200185815260200184815260200183815260200182815250600260008054815260200190815260200160002060008201518160000155602082015181600101908051906020019061038e9291906104d7565b5060408201518160020190805190602001906103ab9291906104d7565b506060820151816003015560808201518160040155905050600160008154809291906103d69061099d565b91905055506000808154809291906103ed9061099d565b919050555050505050565b81600260008481526020019081526020016000206000015414610450576040517f08c379a0000000000000000000000000000000000000000000000000000000008152600401610447906107b6565b60405180910390fd5b8060026000848152602001908152602001600020600301819055505050565b6002600082815260200190815260200160002060008082016000905560018201600061049b919061055d565b6002820160006104ab919061055d565b6003820160009055600482016000905550506000808154809291906104cf90610910565b919050555050565b8280546104e39061093a565b90600052602060002090601f016020900481019282610505576000855561054c565b82601f1061051e57805160ff191683800117855561054c565b8280016001018555821561054c579182015b8281111561054b578251825591602001919060010190610530565b5b509050610559919061059d565b5090565b5080546105699061093a565b6000825580601f1061057b575061059a565b601f016020900490600052602060002090810190610599919061059d565b5b50565b5b808211156105b657600081600090555060010161059e565b5090565b60006105cd6105c884610877565b610852565b9050828152602081018484840111156105e9576105e8610a78565b5b6105f48482856108ce565b509392505050565b600082601f83011261061157610610610a73565b5b81356106218482602086016105ba565b91505092915050565b60008135905061063981610ac1565b92915050565b6000806000806080858703121561065957610658610a82565b5b600085013567ffffffffffffffff81111561067757610676610a7d565b5b610683878288016105fc565b945050602085013567ffffffffffffffff8111156106a4576106a3610a7d565b5b6106b0878288016105fc565b93505060406106c18782880161062a565b92505060606106d28782880161062a565b91505092959194509250565b6000602082840312156106f4576106f3610a82565b5b60006107028482850161062a565b91505092915050565b6000806040838503121561072257610721610a82565b5b60006107308582860161062a565b92505060206107418582860161062a565b9150509250929050565b6000610756826108a8565b61076081856108b3565b93506107708185602086016108dd565b61077981610a87565b840191505092915050565b60006107916015836108b3565b915061079c82610a98565b602082019050919050565b6107b0816108c4565b82525050565b600060208201905081810360008301526107cf81610784565b9050919050565b60006020820190506107eb60008301846107a7565b92915050565b600060a08201905061080660008301886107a7565b8181036020830152610818818761074b565b9050818103604083015261082c818661074b565b905061083b60608301856107a7565b61084860808301846107a7565b9695505050505050565b600061085c61086d565b9050610868828261096c565b919050565b6000604051905090565b600067ffffffffffffffff82111561089257610891610a44565b5b61089b82610a87565b9050602081019050919050565b600081519050919050565b600082825260208201905092915050565b6000819050919050565b82818337600083830152505050565b60005b838110156108fb5780820151818401526020810190506108e0565b8381111561090a576000848401525b50505050565b600061091b826108c4565b9150600082141561092f5761092e6109e6565b5b600182039050919050565b6000600282049050600182168061095257607f821691505b6020821081141561096657610965610a15565b5b50919050565b61097582610a87565b810181811067ffffffffffffffff8211171561099457610993610a44565b5b80604052505050565b60006109a8826108c4565b91507fffffffffffffffffffffffffffffffffffffffffffffffffffffffffffffffff8214156109db576109da6109e6565b5b600182019050919050565b7f4e487b7100000000000000000000000000000000000000000000000000000000600052601160045260246000fd5b7f4e487b7100000000000000000000000000000000000000000000000000000000600052602260045260246000fd5b7f4e487b7100000000000000000000000000000000000000000000000000000000600052604160045260246000fd5b600080fd5b600080fd5b600080fd5b600080fd5b6000601f19601f8301169050919050565b7f5265736572766174696f6e206e6f7420666f756e640000000000000000000000600082015250565b610aca816108c4565b8114610ad557600080fd5b5056fea26469706673582212201f0af1132cf1644b596983648ed81d8243aa820a7edfc83f5670dea9854e04e564736f6c63430008060033",
  "immutableReferences": {},
  "source": "// SPDX-License-Identifier: MIT\r\npragma solidity ^0.8.6;\r\n\r\ncontract ReservationContract {\r\n    uint256 public reservationsCounter = 0;\r\n    uint public reservationsID = 0;\r\n\r\n    struct Reservation {\r\n        uint256 id;\r\n        string name;\r\n        string start_date;\r\n        uint amount_days;\r\n        uint amount_persons;\r\n    }\r\n\r\n    mapping(uint256 => Reservation) public reservations;\r\n\r\n\r\n    function createReservation(string memory _name, string memory _start_date, uint _amount_days, uint _amount_persons) public{\r\n      reservations[reservationsCounter] = Reservation(reservationsID, _name, _start_date, _amount_days, _amount_persons);\r\n      reservationsID++;\r\n      reservationsCounter++;\r\n    }\r\n\r\n    function deleteReservation(uint256 _id) public {\r\n        delete reservations[_id];\r\n        reservationsCounter--;\r\n    }\r\n\r\n    function modifyDays(uint256 _id, uint _amount_days) public {\r\n        require(reservations[_id].id == _id, \"Reservation not found\");\r\n        reservations[_id].amount_days = _amount_days;\r\n    }\r\n\r\n    function modifyAmountPersons(uint256 _id, uint _amount_persons) public {\r\n        require(reservations[_id].id == _id, \"Reservation not found\");\r\n        reservations[_id].amount_persons = _amount_persons;\r\n    }\r\n \r\n}",
  "sourcePath": "D:\\reservationcontract\\contracts\\ReservationContract.sol",
  "compiler": {
    "name": "solc",
    "version": "0.8.6+commit.11564f7e.Emscripten.clang"
  },
  "schemaVersion": "3.4.11",
  "updatedAt": "2023-01-28T13:09:27.092Z",
  "devdoc": {
    "kind": "dev",
    "methods": {},
    "version": 1
  },
  "userdoc": {
    "kind": "user",
    "methods": {},
    "version": 1
  }
}